:020000040000fa
:10000000f0ff0120d5cf0501ddf50501e1f5050182
:10001000e9f50501edf50501f1f505010000000028
:1000200000000000000000000000000019c90401e9
:10003000e5f50501000000007dc90401e5c90401e2
:10004000b56d0501cb240501cb240501a1040501f3
:10005000cb240501cb240501cb240501cb240501cc
:10006000cb240501cb240501cb240501cb240501bc
:1000700089300401cb24050175900401cb240501ce
:10008000cb240501cb240501cb24050135a10501b5
:10009000d99c0501cb240501cb240501cb24050106
:1000a000cb240501cb240501cb240501cb2405017c
:1000b000cb240501cb240501ad2f0301cb24050181
:1000c000cb240501d92e0301cb240501cb24050146
:1000d000cb240501cb240501cb240501cb2405014c
:020000040000fa
:020000040004f6
:045f8800ffff000017
:020000040000fa
:020000040004f6
:045f8c0000400e843f
:020000040000fa
:020000040004f6
:045f900038fc745f06
:020000040000fa
:020000040004f6
:045f94003844121467
:020000040000fa
:020000040004f6
:045f98000300007191
:020000040000fa
:020000040004f6
:045f9c000000000001
:020000040000fa
:020000040004f6
:045fbc0000000010d1
:020000040000fa
:020000040100f9
:1040000000430800983c0120000000000000000070
:1040100001430100f13a012000000000000000000f
:1040200002430100f43a01200000000000000000fb
:104030000a4001004a390020000000000000000092
:1040400000400400140700200000000000000000f1
:10405000094001008d060020000000000000000063
:104060000840200020150020000000000100000092
:1040700007403002f81b0020000000000100000093
:1040800006400200b0060020000000000000000012
:10409000054038004015002000000000020000002c
:1040a00004400300aa0600200000000000000000f9
:1040b0000340f000a82000200000000003000000e2
:1040c0000240c800f00800200000000001000000cd
:1040d00001406000503200201998040100000000e7
:1040e000c8f605010900004cf8b500bff8bc08bcd3
:1040f0009e46704789eb0501f8b500bff8bc08bcc7
:084100009e46704765eb0501c6
:020000040000fa
:020000040100f9
:0841080070bb0400010000007f
:020000040000fa
:020000040100f9
:10411000a0f57f40fb3804281cd8dfe800f0050e2e
:10412000161b0300012070470b4b93f82e20012a29
:1041300010d1187ac0f380007047074b93f82e0017
:1041400001288cbf002001207047034b187ac0f370
:10415000c00070470020704760060020034b93f8b2
:104160005201a0f1aa0358425841704780390020fb
:104170000a4af0b5d2e93a321978c90707d5d0e929
:104180000067d3e90245af4208bfa64203d010330f
:104190009a42f1d800231846f0bd00bf80390020b4
:1041a000074ad2e93a321978c90702d559888142bb
:1041b00003d010339a42f6d800231846704700bf48
:1041c00080390020f0b50c4bd3f8e06093f8e5504f
:1041d00000231c4606ebc302d7783fb117888742fd
:1041e00004d197788f4204bfd47054600133dbb29e
:1041f0009d42efd2f0bd00bf80390020034b93f801
:104200004c00a0f1410358425841704780390020ca
:104210003d2803d111b1024b0a881a80704700bfb4
:10422000201c0120034b93f83c00a0f1d603584218
:104230005841704780390020034b93f8c400a0f127
:10424000130358425841704780390020034b93f8bc
:104250007801a0f1b70358425841704780390020d7
:10426000437800f1080210b513f008040a611dbf7d
:104270000a6000f110020a610c6013f010021fbf07
:104280000a694a6008320a6108bf4a6013f00102f5
:104290001fbf0a698a6001320a6108bf8a6013f091
:1042a00004031dbf0b69cb601a78cb601ebf0132bf
:1042b00003eb42030b610b69181a087510bd084a1d
:1042c000d2f80c3292f8082203eb8212934201d307
:1042d00001207047197809b94033f7e7002070478b
:1042e00080390020034b93f80002a0f1da03584212
:1042f0005841704780390020014bfd221a707047e9
:1043000080390020034b93f8b900a0f1e60358422e
:104310005841704780390020034b93f87c020238e3
:1043200018bf0120704700bf80390020034b93f86d
:104330007001a0f18e035842584170478039002027
:10434000024bfb2283f86823704700bf80390020ae
:10435000034b93f86803a0f1fb03584258417047a0
:10436000803900200c4b30b12830d3f8f82090422f
:1043700004d300207047d3f8f400f6e7037803f085
:10438000fb03012b05d1837edb0702d483888b429c
:10439000f0d12830ebe700bf80390020084ad2f87e
:1043a000f430c01a074bc0104343d2f8fc0000ebb6
:1043b000c3008079430714bf00f00700072070474f
:1043c00080390020cdcccccc144b93f800319a42ec
:1043d00094bf9b1adb1adbb299421dd2104b68b115
:1043e000597c890708d493f84800904294bf002074
:1043f000012080f0010070470020fae75a7cd207c4
:1044000005d493f84900884294bf0020012080f031
:10441000010000f001007047012070478039002042
:10442000600600200b4a10b5d2e93d311a78062a01
:1044300009d05c78022c06d102f0fb02012a02d1dd
:104440009a88824203d028339942efd80023184635
:1044500010bd00bf803900204bf6dd734343c3f32a
:104460000333094a32f8331030ea010103d102eb79
:10447000c3035b680bb9002070479a88824201d061
:104480005b6af7e701207047e43d0020024b66229b
:1044900083f8b023704700bf8039002073b50d4bff
:1044a000d3f8dc1293f8e052002201230839d4b289
:1044b000a54206d8002064f3070063f30f2002b082
:1044c00070bd013251f832608642f3d05b00dbb23e
:1044d000ede700bf803900202de9f04f074685b099
:1044e0000020994688461646244cfff7d7ff94f8db
:1044f000e032adf80c00c0b2834232d904f1f401cd
:1045000091e80a109df80d20dff874e001930d4644
:104510006fea020a2b78062ba5eb01030ad095f867
:1045200001b0bbf1020f05d0b5f804b0c34501d00e
:10453000b34519d1db100efb03f30cebc30393f867
:1045400007b00bea0a0b83f807b0019b28359d42a0
:10455000e0d3d4f8dc3203ebc0000760868080f83b
:10456000069005b0bde8f08fdb100efb03f30cebfb
:10457000c30393f807b042ea0b0be4e7803900204d
:10458000cdcccccc07b5fff789ff074b93f8e022e1
:10459000c0b2824282bfd3f8dc32002243f830201e
:1045a00003b05df804fb00bf80390020044b93f892
:1045b000100200f0fd00a0f1480358425841704736
:1045c00080390020024b272283f81023704700bf58
:1045d00080390020034b93f81003a0f127035842c1
:1045e0005841704780390020034b187ca0f1190313
:1045f00058425841704700bf80390020094b30b500
:10460000d3f8a823b3f8ac4300239c4202d1002185
:10461000084630bd114632f8145b8542f8d00133ac
:104620009bb2f2e78039002038b505460c46fff70b
:10463000e5ff50b9124ab2f8ae33d2f8a8131420ed
:1046400000fb03100133a2f8ae336278428020f8f9
:10465000045b002399b28a420ad8094bb3f8ae230f
:10466000b3f8ac1391429cbf0022a3f8ae2338bd2f
:1046700004eb4301498820f813100133eae700bf37
:1046800080390020034bd3f88002b0fa80f0400953
:10469000704700bf80390020084a10b5d2e9a73220
:1046a0001c782cb19c7a8c4202d19c88844203d025
:1046b00018339a42f4d80023184610bd80390020e0
:1046c00010b50446006948b1636923b15a68a24233
:1046d00004bf00225a60c36810309847002323703b
:1046e00010bd436810b4c3b11a69b2b15c698442a9
:1046f00013d151b114205074002018701046d368a3
:1047000000f8101f5df8044b1847107928b9587845
:10471000196161f3c3005870f0e75df8044b70470e
:10472000034b93f8a402b0fa80f04009704700bf31
:1047300080390020114930b5b1f8ac32d1f8a80267
:10474000c3ebc303c21800230479e40709d593b16e
:1047500045795c79a54238bf034607309042f3d3d0
:104760001846037943f00103037191f8ae22012347
:104770009340437130bd0346efe700bf803900200e
:104780000c4a10b5d2f8a832b2f8ac22c2ebc20281
:104790001a441c7914f0010f06d0c4f300148c42a3
:1047a00002d11c88844203d007339342f1d3002303
:1047b000184610bd8039002008b5fff7e1ff18b199
:1047c00003796ff30003037108bdf8b507460e4681
:1047d00015461c46fff7d4ff58b18379a34207d38f
:1047e000094b93f8ae2201239340437145808471b5
:1047f000f8bdfff79fff0379078003f0f10366f32d
:1048000004130371f2e700bf8039002010b50a4b92
:1048100093f82014d3f824240023994202d1ff23d3
:10482000184610bd147814b154788442f8d001337e
:10483000dbb21c32f1e700bf8039002008b5fff77a
:10484000e5ff084b93f82024824281bf00b2d3f8e1
:104850002434c0ebc00003eb80008cbf023000208a
:1048600008bd00bf8039002010b50446c0694378f8
:104870005b078ab010d56946fff7f2fc039b5a78b4
:1048800003eb42039a78db7842ea03232385012372
:1048900084f832300ab010bd8378c27843ea02232c
:1048a000f4e7044b93f88001a0f19a035842584171
:1048b000704700bf80390020024b002283f8d522c8
:1048c000704700bf8039002090f8873043f0020322
:1048d00080f88730012380f83230704730b50d4cb6
:1048e00030b12830d4f8f850a84204d3002030bdad
:1048f000d4f8f400f6e70478062c09d04478022caa
:1049000006d08488944203d08c4201d09c42eed1e0
:104910002830e9e780390020034b93f8e802a0f142
:10492000310358425841704780390020024a536889
:1049300023ea00005060704780390020024b986ed7
:10494000b0fa80f04009704780390020034b93f89b
:104950002804b0fa80f04009704700bf8039002079
:1049600010b5094c502384f85033b4f83a33a4f806
:10497000583304f55270054bc4f8603342f0a8f97f
:104980001b2384f8383310bd803900205581000185
:1049900008485f2380f81032074bc0f830324123bb
:1049a00080f82032002380f8283200f5067042f0ab
:1049b0008fb900bf803900200d51000173b5064644
:1049c0006846cde90023fff7d3fb0446d8b9164d5e
:1049d000d5f8f040d5f8e8309c4203d3d5f8ec3058
:1049e0009c4205d3114b43f214121a8058f070fe0a
:1049f000d5e93b2310339342c5f8f03024bfd5f8f6
:104a0000e830c5f8f0302378668043f00103237066
:104a1000dde90023c4e9022323789df8182062f31e
:104a20004103237002b070bd803900205c06002075
:104a300007b531b35028164b08d0512824d03d2853
:104a400007d11a8909880a441a8102e09a8801323a
:104a50009a809988a9b1d88864224243b2fbf1f2c6
:104a6000d2b2192a0dd99a785ab901229a704ff602
:104a7000ff73adf8043001a814238df8063011f04f
:104a8000abfc03b05df804fbda880132da80e0e7c2
:104a9000201c0120134b984237b5054605d0124b18
:104aa00043f205021a8058f013fe104c002384f8dc
:104ab00030302b789bb90e4d238c29460d2021f8e0
:104ac0003a3f4cf077fe94f8313043b96b8fadf834
:104ad000043001a810238df8063011f07dfc03b0de
:104ae00030bd00bf4c1c01205c060020201c0120b2
:104af00060060020037907b56bb1084b93f853208b
:104b0000920708d55b8fadf8043001a809238df812
:104b1000063011f061fc03b05df804fb6006002074
:104b2000164ad2f8f43013b5c31a154cdb106343a0
:104b3000d2f8fc4004ebc3040378052b08d101a98b
:104b40002c204cf00bfe019bdb0a236002b010bd51
:104b50004378022b05d1026a03f2e63353430193f3
:104b6000f1e70df1030114204cf0f8fd9df803303e
:104b700043f6982203fb02220192e4e780390020e9
:104b8000cdccccccf0b585b01a4cadf804000df10d
:104b90000f012520d4f8f4504cf0e0fdd4f8fcc00f
:104ba000d4f8f470d4f8f8109df80560124c002089
:104bb00002462b78062b0ed0eb1bdb1063430ceb6d
:104bc000c303db791e426b7804bf0132d2b2022be1
:104bd0001cbf0130c0b228358d42ead340b19df8e8
:104be0000f30984228bf184690428cbf0020012009
:104bf00005b0f0bd80390020cdcccccc0d4a0123ce
:104c000003fa00f0536810b50b4c0343536023883c
:104c10001b070ed447f098fe238843f00803238037
:104c200047f0a2fe054b06481b68bde810401b6913
:104c3000184710bd80390020c21f01200800002045
:104c40000c000020034b9a6f192083f8b9001177ec
:104c50000c20d3e780390020024bf92283f8b422dc
:104c60001020cbe780390020437843f0010361f343
:104c700041034370044b93f8a42222b9932283f892
:104c8000a4220520bae7704780390020d0b5124c25
:104c9000124ad4f8b83392f8381083f82a10d2e9bf
:104ca0001067528f1a8583f82b00c3e908675a6989
:104cb00003f1200090470023c4f8b833d4f8b4338c
:104cc00033b1672384f8b0331220bde8d04095e7b4
:104cd000662384f8b033d0bd803900206006002000
:104ce0000f4b0079d3f8b823127b062a00d1cde709
:104cf000042a10d178b96a2283f8b023094ac3f88c
:104d0000d823452283f8c823074ac3f8d02303f5e4
:104d1000707041f0ddbfea2808bfca20e7e700bf96
:104d200080390020ed6400017e060020054b0178eb
:104d3000d3f87c2182f82810472283f880210620ae
:104d40005ce700bf80390020436803221a70597065
:104d5000172053e737b5164c94f85221452a0546db
:104d600005d0144b4ff446521a8058f0b1fc15b1df
:104d7000114b9d4205d00f4b43f281121a8058f01f
:104d8000a7fcaa2384f852310c4bea7a5b8fadf86a
:104d9000043052b9102301a88df8063011f01cfb25
:104da0000220fff72bff03b030bd0923f3e700bf5c
:104db000803900205c060020b83a00206006002000
:104dc00070b5184c94f8c430d4f8c060e82b054690
:104dd00005d0154b43f287021a8058f079fc2eb9a2
:104de000114b43f288021a8058f072fc06f10c0352
:104df0009d4205d00c4b43f289021a8058f068fca2
:104e0000736a2a791a702a685a60ea791a72e92351
:104e100084f8c43094f8c53023700d20bde870408c
:104e2000ece600bf803900205c06002070b5144c11
:104e3000d4f8746105462eb9124b43f2b4021a80bd
:104e400058f046fc06f118039d4205d00d4b43f285
:104e5000b5021a8058f03cfc94f878315e2b05d0ee
:104e6000084b43f2b6021a8058f032fc2b7886f8d1
:104e70004c30582384f878310920bde87040bde6f5
:104e8000803900205c06002070b5164c94f83c2058
:104e9000a56b712a064605d0134b43f2d7021a8040
:104ea00058f016fc2db9104b43f2d8021a8058f076
:104eb0000ffc05f10c039e4205d00b4b43f2d902c7
:104ec0001a8058f005fc337913b1fa2b08bf002380
:104ed00085f82430722384f83c300820bde8704007
:104ee0008ce600bf803900205c060020037810b5f6
:104ef0000e4c93b96f2304f5ec71062084f8d03181
:104f00004cf02cfc0a4bc4f8e03104f5e47041f09d
:104f1000dffe352384f8003210bdd4f88c210a203e
:104f200082f82b30fff76afe2223f3e78039002056
:104f3000b98e00010d4b37b50d4cd3f82c2494f8e5
:104f40005350052183f82814fe2313741620fff70d
:104f500055feab0708d5638fadf8043001a80923cf
:104f60008df8063011f038fa03b030bd80390020da
:104f700060060020f0b5214a85b0d36e92f87070bb
:104f800000244ff4a072064602fb07328df807405a
:104f90002546934214d335b302a940f231104cf0a8
:104fa000ddfb04ab3344052f13f8093c13d89c42b6
:104fb0002cbf00240124b4b12e70284605b0f0bdea
:104fc000197831b1b14201d10134e4b203f5a073d3
:104fd000dfe71d46fae713fb07f3b4eb930fb4bf0b
:104fe00001240024e7e701230df1070146208df895
:104ff0000730002551f002fddfe700bf80390020b7
:1050000008b5fff7b7ffb8b100f11a0390f8072110
:10501000c0f89c300023c0f8c43080f8c030c0e92c
:105020003233a0f8bc3063f34102044b80f807210f
:105030005b8fa0f80031803008bd00bf6006002003
:10504000742908b501d9002008bdfff793ff002897
:10505000f9d000f10c03c0f884308030f4e7f0b5eb
:10506000537d122b87b00d46144620d81669177d44
:105070007178ba1c88b23b44dbb202eb4002934227
:1050800015d1aa88adf8052000238df804308df8dd
:10509000071001aa99b2884202f102020ad801a9b6
:1050a0003e2051f0abfc2169a888fff7bdfa002033
:1050b00007b0f0bd06eb43070133b978ff7841ea4a
:1050c00007215180e6e770b50f4d0024b5f8ac32ea
:1050d000a34200d870bdd5f8a822c4ebc406324460
:1050e000127902f02102212a03d121460a2051f02f
:1050f00085fcd5f8a832334401341a796ff3451290
:105100001a71a4b2e2e700bf8039002070b50e4cde
:1051100010f80c1cd4f8145206462a2051f06efcec
:1051200094f81032602b08d133782b735e2384f807
:1051300010320720bde8704060e50db15d23f6e751
:10514000482384f8103270bd80390020164b2de9b9
:10515000d043d3f80c4206460f4644b9134b4ff4e4
:1051600041521a8058f0a2fa2046bde8d08356ea90
:10517000070110d093f80812234604eb8111002494
:105180008b42f1d2187858b13ab1d3e90289b945c6
:1051900008bfb04505d10024e6e7d3e90689f6e764
:1051a0001c464033ece700bf803900205c0600203d
:1051b00008b50146034857f037fa0320bde8084018
:1051c0001ce500bfc039002010b504460120fff7e0
:1051d00017ff58b1064a224492f85811013982f853
:1051e000581180f88640fff7e3ff012010bd00bf93
:1051f00080390020132810b5044605d90c4b43f222
:10520000d2121a8058f064fa0a4a224492f85831ad
:105210000133dbb282f858312bb9054b43f2d3127c
:105220001a8058f055fa2046bde81040cce700bf80
:105230005c0600208039002003790a4a1bb103f084
:10524000ef03ea2b09d1d2f8283301688b4304d04d
:10525000522382f810330820cce7272382f810333a
:10526000704700bf8039002010b50446b830fff702
:1052700089f90023124a2370d15cd8b2d1b1fff76b
:10528000a3ffd8b90f4c94f8a4321a2b02d10520f1
:10529000fff7b4fc94f87031902b05d1912384f87a
:1052a00070310f20fff7aafc636f3bb11520bde8fa
:1052b0001040a3e40133142bded1e3e710bd00bf9f
:1052c000d83a00208039002038b50d4d01460446fb
:1052d000284657f0a9f92b7f782b10d120232b7764
:1052e000a37d0c2b09d020894ff6f77398428cbf11
:1052f00001200220bde838407ce71020fae738bde5
:10530000383c002037b50546214c38b194f852316d
:10531000442b03d104f59a73984205d01d4b43f2f8
:1053200082121a8058f0d4f92d78aa2384f85231c9
:105330004dbb194ab4f828315387adf8043001a8a1
:1053400010238df8063011f047f894f85431d3b19a
:105350000d2384f82e314ff6fd73a4f8203102336b
:10536000a4f82431b4f85031a4f822310b4bc4f81e
:105370001c310b4884f82851462384f85231fff73a
:10538000a3ff03b030bd0220fff738fcf9e700bff0
:10539000803900205c06002060060020518e00014c
:1053a000983a002030b40c4c94f8d55295b984f852
:1053b000d2320123a4f8c402a4f8c612a4f8ca2267
:1053c000a4f8c82284f8cc5284f8d53204f52f70a2
:1053d00030bc79e730bc70478039002010b441b14f
:1053e000c469b0f880206188a0885df8044b0b2365
:1053f000d8e75df8044b704710b5d0f89430104ce6
:10540000c0f8a030002380f8a910c0f8a4300146ed
:10541000204657f009f92379412b06d10323237144
:105420000e20bde81040fff7e9bb032b07d0054b6a
:1054300043f2b312bde810401a8058f037b910bdde
:10544000c83900205c06002038b5446890f88330e5
:1054500084f8a8300d463830fff794f829462046e6
:10546000bde83840c8e708b500f10801084857f022
:10547000dbf8084b93f8b023662a07d1672283f83c
:10548000b0231220bde80840fff7b8bb08bd00bf3d
:10549000343d0020803900200a49d1f80c32834283
:1054a00005d891f8081203eb8113984205d3064bf7
:1054b00043f241021a8058f0f9b8402200215af014
:1054c00035b900bf803900205c060020034b002264
:1054d000c3e900224ff48070fff728ba8439002016
:1054e000094bd3f8480493f8442400239a4200d18e
:1054f00070470178032903d1182200215af016b908
:1055000001331830dbb2f1e7803900202de9f34197
:1055100001230746884637200df107018df8073033
:105520004cf01cf93e4890f82e20022a4ff000065d
:1055300006d19df807301bb9032002b0bde8f08109
:10554000384c002394f8e510d4f8e0c01d460ceb6d
:10555000c30292f803e0bef1000f37d0b2f800e0ca
:10556000be4536d19278424533d10020e5e745f07b
:1055700035ffd4f8d030d4f8e07094f8e560834279
:105580008abfdb43c01ac0184ff0ff32002307eb7d
:10559000c301cc7854b14c6844b1a94206d08442ce
:1055a0000ed9241aa2424c6028bf22460133dbb236
:1055b0009e42ecd269681c4b8a4228bf0a4625e00d
:1055c00000244c60cc70f1e70220b6e70db91e460e
:1055d00015460133dbb29942b9d2002df4d085f8db
:1055e0000280c2682f800a320123b1426a60eb70e8
:1055f00007d194f8e430013b99423cbf013184f873
:10560000e51094f8c830002bb1d1074b07480121b1
:1056100059f0b2f8054859f0c3f801208de700bff2
:10562000600600208039002031560001483a0020f1
:10563000f8b5174bd3f8e060d3f8d47093f8e55081
:105640004ff0ff32002106ebc104e07830b1606812
:10565000c01b606090b1824228bf02460131c9b2ce
:105660008d42f0d2511c0bd00a4b0b48012159f04e
:1056700083f80948bde8f84059f092b8e070ede7ca
:10568000002283f8e5200448bde8f84059f090b8be
:105690008039002031560001483a002013b540f20d
:1056a0000b100df106014cf059f8bdf806303bb96e
:1056b0000c4b43f215121a8057f0f8ff02b010bde0
:1056c000094c40f20a2021464cf02ef8bdf8062085
:1056d000206812018318002163605af027f82368bc
:1056e000a360ebe75c060020683a002010b50f4b82
:1056f00093f83720827793f8382081610123934013
:10570000436140f601030446838300f11f014ff417
:1057100082704cf023f804f1100140f202204cf0aa
:1057200003f82046bde8104041f0cfba60060020e3
:105730002de9f743354d95f86833fb2b49d13449b2
:10574000c8884b8f984244d1507d092841d91669a9
:10575000d1e91023d6f80690d6f802804b4508bf51
:10576000424536d1737813f0e00732d103f01f03be
:105770000533b0eb430f2cd18c8f4ff482700df1b9
:1057800007014bf0ebff9df807300133dbb201342a
:10579000a4b28df8073038464ff6ff7c9ab2737882
:1057a000c1b203f01f038b420ad9a5f86cc30021d4
:1057b0007778cbb207f01f079f420ed88f421cdcd0
:1057c00014491548a5f86a43fff790ff832385f82d
:1057d0006833012003b0bde8f0830b1d06eb4303e3
:1057e0005b881b1b9bb29342e8d9b5f86c739f4250
:1057f00088bfa5f86c330131dae7031d06eb4303dc
:1058000001305c880134a4b2c9e700bf80390020b0
:1058100060060020a9810001f03c002038b501237a
:1058200080f824300b68c36190f84d3080f8253043
:105830000d4b93f8373080f82630044600f1080508
:1058400000f127014ff482704bf088ff04f118013a
:1058500040f202204bf068ff044b23622846bde86b
:10586000384041f032ba00bf60060020e9790001fb
:10587000f7b52f4c94f87831d4f87451572b06466d
:1058800005d02c4b43f2a8021a8057f021ff2db906
:10589000284b43f2a9021a8057f01aff05f11003b2
:1058a0009e4205d0234b43f2aa021a8057f010ff04
:1058b00033796bbb3168ea6922ea0102019232b99d
:1058c0001c4b43f2ba021a8057f0f0fe1ee0b76894
:1058d000f679202001229e4211d9019911420ad065
:1058e00017f803c0bcf1cc0f88bf914303f101034b
:1058f00088bf0191dbb201384fea4202ebd101a926
:105900002846fff78bff562384f8783103b0f0bdab
:10591000fa2b03d1074b43f2bb02d4e785f84c3096
:105920000920582384f87831fff768f9eee700bfc3
:10593000803900205c0600200348002380f87c3278
:1059400000f514704ef034bb8039002073b5164c4e
:105950000df107014ff486704bf000ff214640f235
:105960000b204bf0e1fe9df80720206802eb42027d
:10597000d200831800216360002659f0d7fe202052
:105980002672fef7d3ffa4f1140066724ef010fbee
:10599000064b44f8043c4ff4807304f8086c44f858
:1059a0000c3c02b070bd00bf1c3c0020b15900018e
:1059b00038b5104c0023d4f89c5284f8a5322b78cb
:1059c00033b1013bdbb22b707bb92846fef778fe82
:1059d000d4f8a0321835ab42f1d894f8a53243b9c7
:1059e0000548bde838404ef0e3ba012384f8a532fb
:1059f000eee738bd80390020083c002013b50023b5
:105a00000df107014ff498708df807304bf0a6feaa
:105a10009df807308bb10a4c94f890238b2a05d15e
:105a2000084b43f203221a8057f052fe94f8903349
:105a30008a2b02d104484ef0bbfa02b010bd00bf61
:105a4000803900205c060020143d0020f8b5174c7a
:105a500094f82834042b0f4623d1d4f82c6415690c
:105a60002eb9134b43f205521a8057f031febb7921
:105a7000012b18d10f484ef09bfa94f82834042bd0
:105a800007d16b782bb9ab780b4a03f0070382f888
:105a900053306b78052284f8282416203374fff7de
:105aa000adf80020f8bd0120fce700bf80390020e0
:105ab0005c060020b03d0020600600200348012362
:105ac00080f87c3200f514704ef048ba803900201e
:105ad000054b1a78d20705d5022283f87c220020d4
:105ae000fff788bbeae700bf803900201e2810b509
:105af0000c4613d10b88b3f5005f0fd1fff71cffe5
:105b000063681a68064bc3f85822012283f85c22a6
:105b1000044ac3f86022bde81040cfe710bd00bfc3
:105b200080390020d15a0001084831b9042380f897
:105b3000283400f586604ef011bad0f82c340522d6
:105b400080f8282419741620fff758b880390020ef
:105b50000b4881b9552380f81033012380f8203396
:105b600042f21073c0f81c33064bc0f8243300f522
:105b700045704ef0f3b9272380f81033704700bf0b
:105b800080390020c545000107b54ff48a7001a98e
:105b90004bf0e4fd134b93f87a221946d2b193f8f7
:105ba0007b22013ad2b283f87b229ab1019858b194
:105bb0000122c3f86c0283f87c2203f519704ef0c1
:105bc000cdf903b05df804fb022283f87c22fff7d5
:105bd00011fbf6e743f69823c1f85832fff76eff42
:105be000efe700bf80390020194b70b5d3e9a7411a
:105bf0000646002522784ab993f8a522b2b90122b7
:105c000083f8a52213484ef0a9f90fe06078000749
:105c100004d4d5b12878904288bf25461834a142d3
:105c2000e8d885b12846fef74bfd2c461822002106
:105c3000204659f07bfd4ff0000366f3c303637009
:105c4000272323702546284670bd2546e6e700bf7a
:105c500080390020083c002038b50d4cd4f8f450b1
:105c60002846fef75dffd4f8f83028359d42f7d37b
:105c7000084bc4f814314ff40063c4f80c3100230e
:105c800084f810310448bde838404ef067b900bfd1
:105c90008039002071cc0001843a002010b50f4cef
:105ca0001d2021464bf05afd2368b3b142f25d72cc
:105cb00093420b489cbf42f25e732360012380f83d
:105cc000a033084bc0f8a4338a2380f89033bde892
:105cd000104000f565704ef041b910bd1c3d00202c
:105ce0008039002091b6000107b500230df10701ae
:105cf0004ff498708df807304bf030fd9df8073069
:105d000053b1084b93f89033892b08d0064b4ff4ce
:105d100048521a8057f0cafc03b05df804fbfff745
:105d2000bdfff9e7803900205c06002008b5074b6d
:105d300093f890338b2b05d0054b43f202221a8047
:105d400057f0c6fcbde80840a8e700bf8039002036
:105d50005c0600202de9f0470d4691f820100172f5
:105d600090461e4642686b6a9342044608d20b4432
:105d70009a4205d21a4b43f2a7121a8057f0a8fc98
:105d8000227a696a606859f0e5fb04f110016068e5
:105d9000b5f808a095f82890277a95f92a50fef7cb
:105da0005ffa94f824309df8202084f82890ff1a98
:105db000237884f8257084f8295062f3000398f85a
:105dc0000120a4f826a0520862f341039df8242084
:105dd00066f3c70362f382032370bde8f08700bf58
:105de0005c06002010b5074c002384f8883004f1cd
:105df0008000054bc4f88c3040f024ff142384f855
:105e0000b93010bd80390020f1c60001036893f954
:105e10001230002b05da1323002180f841300846a8
:105e2000e0e7122380f841300620fff7e3b910b510
:105e30001d4c94f82834d4f82c04012b224620d190
:105e40002378db0618d503790e2b03d8437913f09a
:105e5000fe0f09d0052382f82834c12303741620cd
:105e6000bde81040fef7cabe022384f82834122091
:105e7000bde81040fff7beb9052384f82834c223db
:105e8000ece7052b0fd183680c30984704f22c40c7
:105e900056f0eefbd4f82c341bb1012384f82834df
:105ea000dde784f8283410bd8039002010b50720c4
:105eb000fff760f80446c0b10c4856f0d9fb04f176
:105ec0003503c4f81031037984f831310346803446
:105ed00043f80c4f826818469047054b5b6f23b11f
:105ee0001520bde81040fef789be10bdf439002032
:105ef0008039002070b5144d064605f57d70d5f843
:105f0000f44356f0b5fb114991f8383084f822304b
:105f1000d1e91023c4e906234b8f238484f823603e
:105f2000e36804f118009847d5f8f4333bb1172320
:105f300085f8f0331320bde87040fef75fbe1623ee
:105f400085f8f03370bd00bf803900206006002066
:105f5000007810b9014bbd221a70cbe780390020c0
:105f600070b5244c04f56d70d4f8b45356f080fb32
:105f70002378287913f0100fa5f1080623461ad0cc
:105f8000042818d11c4b2a7c1a72682384f8b03379
:105f90001a4bc4f8d83306206f2304f57471c4f883
:105fa000b86384f8c8334bf0d9fb04f57070bde8d2
:105fb000704040f08dbe062812d10f4a297c117224
:105fc000682283f8b0230d4ac3f8d8236f22c3f8a0
:105fd000b86383f8c8230a494bf0c0fb0948e6e7d9
:105fe000c22385f8233005f11800eb68bde8704046
:105ff000184700bf8039002060060020ed640001d2
:10600000503d0020403d002038b51d4d284656f03b
:106010002ffb2b79032b044605d01a4b43f2b41205
:106020001a8057f055fb2cb9164b43f2b5121a8063
:1060300057f04efbd4f898303bb9124b43f2b612ee
:106040001a80bde8384057f031bb04f19c009847f6
:1060500094f8a9301bb90c493c2050f0cffc0b49f7
:106060003d2050f099fc0a4b9a6c22b10e20bde8fd
:106070003840fef7c3bd412283f84c2038bd00bf35
:10608000c83900205c060020201c0120c4370120f4
:106090008039002070b5314c94f8c430e72b48d1da
:1060a000d4f8c0502db92e4b43f281021a8057f01c
:1060b0000ffb237813f0010f6b6a1fd01a6aaa61d5
:1060c000002685f8206093f8242085f82120254ab1
:1060d00092f8372085f822201022093385f82320f2
:1060e000214a6b61ea61281d40f0effd237884f8b6
:1060f000c5302670e82384f8c43070bdc3221a70fe
:10610000e92384f8c430194856f0b2fa054628b994
:10611000134b43f282021a8057f0dafa686a836af4
:106120006bb90f4b43f28302bde870401a8057f001
:10613000bdbae92be7d00a4b43f28602f4e7984751
:10614000d4f8c0303bb1e72384f8c4300d20bde85b
:106150007040fef753bd1323cde700bf8039002008
:106160005c06002060060020c14d0001403a00207e
:1061700073b5304890f810325d2b054632d1027865
:10618000d0f81432d20714d5602280f810221b797f
:10619000294ac0f83022003318bf0123412280f879
:1061a000202280f8283200f5067040f091fd02b000
:1061b00070bdc2221a735e2380f810321f4c204635
:1061c00056f056fa236806467bb1c22303735d235b
:1061d00085f810320720fef711fdb36806f10c00b8
:1061e0009847e4e75e2be2d1e8e703795a1ed2b282
:1061f000fd2a0bd84ff47a72534304f12400e36272
:106200004df0acfe4a2385f81032e6e7ff2b0fd1a4
:106210000df107014ff495704bf0a0fa9df807308f
:10622000012b01d1064be8e7022b01d1054be4e736
:106230004823e8e7803900200d510001943b0020fd
:1062400000c8af0030e003002de9f041424ca4f556
:106250002077204656f00cfa3b78db07054674d5cc
:106260003e4ec188708fd4e907321c782cb11c894e
:106270008c4202d19c88844207d018339342f4d3d5
:106280000120fff7b1fc044630b904236b74eb68be
:1062900005f1100098474ce02a79637862f34613c1
:1062a0006a7a62f304136370ff23e370738fa38031
:1062b000eb88238197f884325a1e0d2a41d996f82b
:1062c0002d30013313f0ff034ff0010214bf86f8a5
:1062d0002d3086f82d2087f8842296f82d10262060
:1062e00050f08cfb96f82d305a1e97f8843243ea12
:1062f0000213a3722b7ae372b37a25610133dbb206
:106300004ff0000863730121204684f80c80b372bb
:10631000fef7aafc124b598e4ff6ff72914208bf4e
:10632000a3f832805a8e0f49013245205a8650f028
:1063300065fbd7f880326bb10420bde8f041fef771
:106340005dbc013387f88432cce7c22300f8103fec
:10635000eb689fe7bde8f081003c0020600600206c
:10636000201c0120521c012038b5104d2b7cc22b63
:106370002c4618d105f1140056f07af9436808301c
:1063800098476b6963b1c1232b74012384f82030d3
:10639000074b6362074840f055fcc323237401e0b8
:1063a00019232b7438bdc12bfcd1eee780390020b6
:1063b00079d70001983900200178134be12910b4f6
:1063c0001846d3f8ec4216d193f8e922032a12d8e2
:1063d0000e490132888f0988a3f8001383f8e92257
:1063e000a421a3f8fa0283f8e81203f53c705df8e3
:1063f000044b40f073bca523217380f8e8325df8ac
:10640000044b0120fef7fabb803900206006002013
:10641000027810b51ab11046bde810406ae543781d
:106420002e4c502b3dd011d8462b1dd04b2b32d0ab
:10643000452b3cd1462384f800340f2384f80834dc
:1064400004f57e70bde8104040f042bc532b13d0e1
:106450006f2b1ad0522b2ad1532384f80034204baf
:106460005b8fa4f80834ebe7522384f800341c4b0c
:106470001b7ac3f3c003e1e76f2304f581610620b3
:1064800084f800344bf06af9dae74b2384f80034df
:10649000134b1b88e5e7502384f80034104b9b8f87
:1064a000dfe70f4b84f8002493f83830c6e794f800
:1064b00000348bb90a4b0b481b7a13f0080f14bf3a
:1064c0006ff07f430023c4f80034074bc4f8043452
:1064d000bde8104040f0f6bb10bd00bf8039002081
:1064e00060060020783d0020515f0001027812b163
:1064f0001046fef7cbbb4378462b30d002d8452b55
:1065000022d07047522b33d06f2b43d122486921c0
:1065100080f8b013032180f8dc13d0f8b8130b6bac
:10652000c0f8d43391f8341080f8dd131b4980f89b
:10653000df2391f837101a4a80f8de13c0f8d82309
:1065400000f5707040f0c1bb1348462380f8c83393
:106550000f2380f8d03300f5707040f0b9bb0e48bf
:10656000522380f8c8330d4b1b7ac3f3c003f0e706
:106570000a4b09481b7a13f0080f14bf6ff07f43d2
:106580000023c0f8c833074bc0f8cc3300f5707057
:1065900040f098bb704700bf8039002060060020a3
:1065a000e14c00012966000170b51c4cd4f874510f
:1065b00006462db91a4b43f2b1021a8057f088f8fb
:1065c00005f11c039e4205d0154b43f2b2021a801e
:1065d00057f07ef894f878315d2b05d0104b43f2dc
:1065e000b3021a8057f074f8337863b96ff07f43c1
:1065f0002b610c4b6b6105f1080040f063fb5e23df
:1066000084f8783170bd85f84c30582384f878319f
:106610000920bde87040fef7f1ba00bf80390020c4
:106620005c0600202d4e0001007868b907486b23f6
:1066300080f8b033064bc0f8cc33532380f8c8330e
:1066400000f5707040f0fbbafef720bb80390020e7
:10665000d5740001426810b4537813f0010108bfeb
:10666000022180f85410d478917841ea0421a0f8ee
:1066700056101179527941ea0222a0f85820c28cb2
:10668000a0f85a2090f8252080f85c20c3f340033e
:10669000026a026680f86c30028d064ba0f8642016
:1066a0000367002380f86d305df8044b383009f043
:1066b000a9be00bf9f710001f8b5384dd5f86c41f7
:1066c000062094f8b110fef7bbfc2e46002861d0de
:1066d0000546b4f8ac2015f8383b23f007030370e7
:1066e00094f8b030a0f856202d4a80f85430528fdc
:1066f000a0f8582094f8b12080f85c20012bd4f841
:10670000901094f8b57080f86c700cbf09230823c2
:10671000cb1a5b7813f0040f436815bf1b330933a2
:106720000366036614bf02f11b0302f1090303723f
:1067300017b1036e0e3303661a4b0367012380f80b
:106740006d30006e58f006ff174855f091ff00239a
:10675000a4f8a830d4f89430c4f8a03094f8b73036
:106760008bb9d4f8983004f19c009847284609f07a
:1067700049fed6f86c315bb10f20fef73ffa8f234c
:1067800086f87031f8bd04f10800fef711fdede761
:106790008e23f5e7902385f87031f3e780390020e8
:1067a000600600209f710001ec3a0020f0b5284df2
:1067b000d5f80c4295f8086287b004eb861684b3ce
:1067c00041f64c57b44232d22178022931d1238c80
:1067d000adf80030d4e90623cde90223adf811105d
:1067e00063789b0712d595f87c32022b0ed0fff709
:1067f000a3f858f03bff80b2b0fbf7f307fb13039d
:1068000017fa83f3c5f85832fff758f963788df813
:1068100010302046fef740fe68460ff0b5fc4034cd
:10682000d0e70c4b43f242021a8056f03fff07b00c
:10683000f0bd0329f3d1238aadf80030d4e9022357
:10684000cde90223637d8df811108df81230c7e772
:10685000803900205c06002010b5164a0023038012
:1068600092f83340017864f38501017004684ff6b3
:10687000fc51214041f400710160518f818092f8f8
:1068800034104900ff2928bfff218171917a01311d
:10689000c9b29172c17192f82e10022904d192f8f6
:1068a0005330003318bf0123427863f3451242701e
:1068b00010bd00bf60060020f8b5c469174e05463c
:1068c0002046b76ffff7c8ff238823f4805323f0d7
:1068d000030343f4805343f00103238039f008fca1
:1068e000d0e90023e3603b8a63806378a2606ff3a2
:1068f000c30363700123a37146f2040323821223ae
:1069000085f830303b8aa5f880302b850222182389
:1069100085f8252086f8b930f8bd00bf8039002001
:10692000f8b5c469204d06462046af6ffff794ffc7
:10693000238823f4805323f0030343f4805343f06c
:106940000103238039f0d4fbd0e900236361b5f85b
:10695000883063806378226143f008036370d5f860
:106960008030a360d5f88430e3600123a37144f242
:1069700004032383fb7c002b14bfc02340236376d6
:106980003a7d12b143f020036376b5f88830338541
:106990001a2386f8303095f88a3086f8323016237c
:1069a00085f8b930f8bd00bf80390020f8b5294b13
:1069b000d3f80c4293f80832064604eb8313a34243
:1069c00007d8254b43f243021a80bde8f84056f041
:1069d0006dbe2778012f01d04034f0e7f5692846d5
:1069e000fff73aff2b88627d23f4c05323f00303a3
:1069f00043f4c05343f001032b806b7862f34103ef
:106a00006b70638a6b80a368ab60e368eb60134bc9
:106a10005b8fab8039f06cfbd0e900236b610723ff
:106a2000af712b76238aa5f81930237deb76638a24
:106a30002a6133856378746013f0080f4ff01c03ec
:106a400086f8303008bf0527042386f8327023709b
:106a5000f8bd00bf803900205c06002060060020e1
:106a6000f8b5c469194e1a4f05462046fff7f4fee3
:106a70002388d6f88c2123f4c05323f0030343f476
:106a8000805343f001032380527b637862f3410318
:106a90006370d6f890319b8863807b8fa38039f038
:106aa00027fbd0e90023e3600123a371a260062243
:106ab00022743a7a6274d6f89021928885f832303e
:106ac00012232a8585f83030f8bd00bf80390020b8
:106ad000600600202de9f04fc4697f4e85b007465f
:106ae0002046fff7b9fe238823f4805323f00303e5
:106af00043f4805343f00103238039f0f9fad0e9dd
:106b00000023e3606ff00303a3700333e3700123fa
:106b1000a371238aa26003f4fe4343f00803238297
:106b20006e4bb6f878e2d6e93d12d3e91089002021
:106b30004ff6f77a914273d31a2800f2908096f8b4
:106b40007a22637c002a40f0828023f0600343f0c5
:106b50006003637404f160030193d6f8f43000938a
:106b6000d6f8f8300393d6f8fc3002935b4bb6f8b6
:106b7000785296f87ac2d3e9102304f112099b46a1
:106b80009246ae464b464ff00008009a0026039905
:106b90008a42c0f0848026b3009ab5881d80b11a5d
:106ba0004f4ac9105143029a02ebc1019a78887981
:106bb0008979c0f3c20060f30202c1f3020161f3fc
:106bc000061202f07702bcf1000f9a701cbfae46ad
:106bd000e0465207019a18bf033301359a42adb21d
:106be000d3d8b8f1000f02d03b4aa2f878e2a3eb69
:106bf00009093c4b627c03fb09f363f304026274f2
:106c0000bcf1000f02d1344aa2f878c203f01f038e
:106c100003eb4303123387f8303005b0bde8f08f43
:106c20000b78062b11d04d78022d0ed0d1e904bc83
:106c3000e14508bfd84508d18b88534505d8012dbb
:106c400003d19e459cbf0130c0b2283172e70022bb
:106c500023f0600386f87a2243f0400379e796f840
:106c60007a521db1637c23f0600372e71e4940f243
:106c700013104af073fd96f87b32012b637c23f0ee
:106c800060031bbf43f02003637443f060030123e0
:106c90000abf637486f87a3286f87a525ae7117816
:106ca000062914d05178022911d0d2e904018b456c
:106cb00008bf82450bd191884ff6f770814206d804
:106cc0008d4204d82eb1b088884288bf164628323b
:106cd0005de71646fbe700bf803900206006002014
:106ce000cdccccccabaaaaaafb3b00202de9f0412d
:106cf000c469204ddff88080af6f06462046fff75d
:106d0000abfd238823f4805323f0030343f4805323
:106d100043f00103238039f0ebf9d0e90023e3606d
:106d20006ff00203a3700233e370a260e179b8f858
:106d30003a00fef7ebfb63786ff3c3036370012344
:106d4000a3714ff00403238298f82e30022b03d056
:106d5000fb7c0bb1802363743b7d1bb1637c43f0f0
:106d600020036374122386f83030132385f8b9307a
:106d7000bde8f0818039002060060020f8b52a4b7c
:106d8000c469d3f8485493f8442406460023934238
:106d90000bd12046fff760fd2278012363f3010247
:106da000a371002322705b88ffde2f78012f03d0b0
:106db00001331835dbb2eae72046fff74dfda77136
:106dc0006b886380238823f4805323f0030343f408
:106dd000805343f00103238039f08af9d0e900237e
:106de00063616378226143f008036370ab68a3605a
:106df000eb68e3600c2323766b7863760b4b93f898
:106e00005320a37e510862f3000361f34103a3768c
:106e10001b2386f8303075600223aa742b70a37e82
:106e20006ff3c703a376f8bd803900206006002009
:106e300038b5c46905462046fff70efd238823f4c4
:106e4000805323f0030343f4805343f00103238072
:106e500039f04ef9d0e90023e3604ff0ff33a3701f
:106e6000e3706378a2606ff3c30363700b4b1a6c1b
:106e7000c4f812205a6c1b7ca3764ff485732382ce
:106e8000074bc4f81620b3f86a23a4f81b201d2270
:106e900085f83020852283f8682338bd60060020fd
:106ea0008039002030b5134c002384f8b83094f8b2
:106eb000ad3085b02546bbb904f1a00039f024f906
:106ec00020b9d4e9282352ea03010fd10a4900224c
:106ed0000023c1e9102395f8ac108df8081068461e
:106ee000cde900230ff0aaf905b030bd94f8ac103d
:106ef000f3e700bf80390020600600202de9f04f45
:106f0000724a90f8863090f88280c46902eb0313cd
:106f100085b01b7b8df80b3008f1ff3305460f461b
:106f20000192092b14d8dfe803f0b21305131334d0
:106f300034131334e1290bd000296288adf80c20fa
:106f40000cbf1323092303a88df80e300ff044fa69
:106f50005f4b93f82e20022a07d06278d10740f1c8
:106f6000a480227a920700f0a68095f88630019ad4
:106f700002eb03139b6813b13946284698479df8e6
:106f80000b301bb1a5f18000fef76ef905b0bde82e
:106f9000f08fb4f802b061781ffa8bf601f00101ae
:106fa0003046fdf7edfb0346002846d04279bfb9d5
:106fb000ff2a12d1474ad2f8a832b2f8ac22c2eb6b
:106fc000c2021a441979c90741bf597949080131e8
:106fd000597107339342f5d3bae701324271b7e7eb
:106fe00052b13c4991f8ae1242fa01f111f0ff01a1
:106ff00008bf0121521a42715a791979003218bf1b
:10700000012262f300011971314ab4f804a0528fd1
:107010001ffa8af082429bd02278920798d113b14e
:107020001b79db0794d4b8f1060f09d10023b5f81a
:1070300080203146fef7b6f98ae7002f88d0e3e7d3
:10704000244e96f8d582b8f1000f81d1b5f8809022
:107050002a8d034649464046fdf740fc00283ff490
:1070600077af0c2386f8d2328388a6f8c832012382
:10707000a6f8c4b2a6f8c6a2a6f8ca9286f8cc8230
:1070800086f8d53206f52f70fef71ef960e7b0f8e6
:1070900080206188a0880023fef784f961786088e9
:1070a00001f00101fdf788fb52e761884ff6f772a6
:1070b00091423ff65aaf5a8801325a80002f3ff46e
:1070c00054af9a8801329a804fe700bf70e3040101
:1070d000600600208039002017b441688a79013a9f
:1070e000d3b28b71027812f0010202d01a1c18bfc1
:1070f0000122037862f300030370dbb2da0748d59c
:10710000c269a2b3182262f3c7030370037a8df831
:10711000003003780191c3f3c4038df80130c38cb0
:10712000adf80230019b5a786ff345125a709df802
:10713000013080f886309df8003080f83030019bb7
:1071400090f88720c361bdf80230a0f8803000239a
:1071500063f34102436480f84030c0e9123383870f
:1071600080f8872003b05df8044bfef721b80a7859
:1071700002f00302012ac9d1026a1478052c01d158
:107180001922c0e7032cc1d152780c2abed11a2291
:10719000b9e7803803b05df8044bfef765b810f826
:1071a000743cdb0701d5743896e7f438fef75cb819
:1071b00038b5114c20460d4655f05afa0346426840
:1071c00003f8155f1846904723688bb12022227779
:1071d0009a7d0c2a0ad018894ff6f77398428cbf13
:1071e00001200220bde83840fef704b81020f9e77e
:1071f0007823237738bd00bf383c002030b590f8a5
:107200003030722b8bb0044619d86946c069fdf73f
:1072100027f8049b9df81420587894f83010023217
:1072200045002a448a420ad10130074a58702b444b
:10723000528f5a80023184f830100bb030bd752364
:1072400084f83030f9e700bf600600200848037872
:10725000db0705d5022380f87c320020fdf7cabf8a
:10726000012380f87c3200f519704cf077be00bf26
:10727000803900202de9f041537d05460c46164625
:107280007bb101784f1efbb20b2b0ad862884ff6f8
:10729000f7739a4208d8114b03eb8703d3f8f03108
:1072a000b3b90020bde8f081082904d84ff48973f0
:1072b000cb40db07efd40a4ba0885b8f8342f0d032
:1072c000e179fef723f900f0fd000128e3d0e8e7bb
:1072d00032462146681cbde8f041184770e30401be
:1072e0006006002008b550f80c3c40f8503c03798b
:1072f00000f83c3c0378a3b9114b30f84c2c9b8f21
:107300009a4204d16438bde808403ff0eabca0f1dd
:107310006c010c4855f088f90320bde80840fdf7e2
:107320006dbc022b08d009d3042b8cbfc321ce2106
:107330006c38bde80840e1e5cc21f9e7c321f7e767
:1073400060060020c439002038b5204c94f8e8329b
:10735000a32b33d1d4f8ec3200221a732278d2074f
:107360005cbfc2221a731a79aab1c1221a73a5236b
:1073700084f8e832164d284655f07af983680c30c7
:1073800098472b68ebb1a32384f8e8320120bde8cd
:107390003840fdf733bc1b7b002be8d10d4b0e486a
:1073a0009a8f1b88a4f800334ff4d273a4f8fa2202
:1073b000a4f8e832bde838403ff090bca52bd9d006
:1073c00038bd312384f8e832fae700bf8039002065
:1073d0006c3c002060060020703c002010b5194b6a
:1073e00093f80031994294bf5b1adb1adbb29842e2
:1073f000154b06d393f8202002f07b0283f820205f
:1074000010bd5c7ca20718d493f848208a4294bf30
:107410000021012193f8202061f3820283f82020cb
:10742000e2070cd493f84920824294bf0020012047
:1074300093f8202060f3c712e0e70021eae700207c
:10744000f6e700bf80390020600600200c4a10b427
:10745000d2e93d34002108461a78062a0ad002f003
:10746000fb02012a06d15a78022a0bbf01300131f2
:10747000c0b2c9b228339c42eed85df8044bade7e8
:1074800080390020124b002293f832109a77da7f6d
:1074900061f3030293f8331061f30712da7793f87c
:1074a0002020597a02f0fc0261f3c60283f8202002
:1074b0001a6cc3f821205a6cc3f82520ff2283f8e8
:1074c000292002f57f425a851a7c83f82c20bde7db
:1074d0006006002038b5057825b12846bde838405b
:1074e000fdf7d4bb4478502c16d0532c07d04b2c2e
:1074f0001dd11b4b02891a801a48502304e0184bf7
:10750000028918485a874b2380f8c83300f57070f9
:10751000bde838403ff093bb1149038921f83c3f57
:1075200017204af047f90f4880f8c853eee7b4b97e
:107530000b4d037a2946162001f8383f4af03af9f4
:10754000fff7a0ff074b2046bd221a70fdf79efbf8
:1075500095f838102420bde838404ff04fba38bdb8
:107560006006002080390020f8b5454dd5f87441fb
:10757000064604f108072cb9424b43f2ae021a80ca
:1075800056f0a6f804f124039e4205d03d4b43f289
:10759000af021a8056f09cf833784bb184f84c3027
:1075a000582385f878310920bde8f840fdf726bb5f
:1075b00095f87831593b072b59d8dfe803f0041bc5
:1075c000353b585844156f23237404f118010620e5
:1075d0004af0c4f8602385f878312b4b2362384693
:1075e000bde8f8403ff074bb462323740f23237695
:1075f0005a23f0e7254e002306f140013320737231
:107600004af0acf8d6e91023134305d138f070fde9
:10761000d0e90023c6e91023fff734ff4523237484
:107620001b4ba3615b23d6e75223237401232376ec
:107630005c23d0e78323237404f1180108204af067
:107640008df85f23c7e7114b9a8f228293f8382079
:10765000a27493f83730e3740123a3820d4ba36126
:1076600038463ff038fb5d2385f87831f8bd054b8f
:1076700043f2b0021a80bde8f84056f017b800bfd8
:10768000803900205c06002069750001600600203a
:107690007e060020a965000173b52a4c00250df176
:1076a000070140f207108df807504af057f89df88f
:1076b000073084f8343004f148014ff483704af005
:1076c0004df80df1070140f205104af047f894f823
:1076d00048209df807309a4239bf9b1a84f84930f8
:1076e00084f8483084f849500226fff7affe0df1c8
:1076f000070119208df807604af030f89df807302f
:1077000084f82f3094f82e300f499b1b18bf0123ab
:10771000222084f853304af021f80c4b43f60950ec
:1077200093f8325038f0fefc06fb05054ff400607c
:1077300038f0f8fc05eb500094f834504543e56010
:1077400002b070bd60060020b406002008320020a0
:1077500038b51a4c2378db062ad5194dd4f8f43302
:1077600018221b7c84f8f02305f13c0117202b72b2
:1077700049f0f4ff05f13801162049f0effffff75b
:107780008bfffff77ffe0f4bc4f81034452384f8be
:10779000003404f57e7005f11e03c4f808343ff090
:1077a00097fa95f838102420bde838404ff026b9f4
:1077b000c220bde83840fef79dbb00bf80390020e5
:1077c00060060020116400011f49c8884b8f984251
:1077d0002de9704334d01d4b93f8380392282dd1f6
:1077e000507d0d282ad11269567816f0e00025d177
:1077f000012e23d1d1e91045d2f80690d2f80280ab
:107800004d4508bf44451cd1d47a957a127bc3f804
:10781000400344ea0222a3f83a23192283f83823ca
:10782000ca68c3f850230a4a83f83c5383f8546368
:10783000c3f8582303f552704cf090fb012000e090
:107840000020bde8708300bf600600208039002062
:107850006149000110b5114cf1b9114bb4f86a132c
:107860001a7c84f83c230f4adb68c4f840231922b1
:1078700084f83823c4f8503301220b4bc4f8583332
:1078800004f55270a4f83a1384f854234cf066fbc4
:10789000862384f8683310bdfb23fae78039002083
:1078a0006006002041430001614900012de9704359
:1078b00016460c46fcf7aaff144b93f8202482428c
:1078c00003d800233360012017e0d3f8243400b23a
:1078d000c0ebc00003eb800010f1140f4ff0000369
:1078e0003360f0d0d4e900894369d3e90045a94564
:1078f00008bfa04503d133600020bde870838269d2
:1079000010339a42f1d80220f7e700bf80390020f7
:1079100030b58bb043680593044690f824308df859
:10792000183005a84ef004fb0799002951d0089b98
:10793000002b4ed094f824200244207a824248dc66
:107940001a680d685b68cde902236b1c33d001aa6d
:1079500002a99df81900fff7a9ff01282bd0019b70
:1079600013b19b689d4226d99df81900fcf766ff6c
:10797000206470b31a4b93f84b3084f84430089b62
:107980001a685b68c4e90c2304f13003a3646368dc
:10799000e36494f8243084f85030237a84f851302a
:1079a000104b6365002384f8523004f138004ef028
:1079b000b3fa0bb030bd9df81900fcf73fffe38c24
:1079c000adf8043050b9162301a88df806300ef03a
:1079d00003fda4f18000fdf747fceae71123f3e77c
:1079e00060060020e7d300012de9f04f8b4f97f898
:1079f0007831d7f8744185b0562b0646009705d0ec
:107a0000874b43f2ab021a8055f062fe2cb9844bcf
:107a100043f2ac021a8055f05bfe04f110039e4263
:107a200005d07f4b43f2ad021a8055f051fe3379f9
:107a300023b103f0ef02ea2a40f0e5803268e369ff
:107a40009343019300f0de80d6f808c0f5790cf17d
:107a5000040a504600224ff6ff7e95420dd1ff25c5
:107a6000a846a94600234ff0010c019911ea0c0f1a
:107a700040d00020d646014631e0b0f80080f04505
:107a800003d10132d2b21830e7e7531cdbb203eb6b
:107a9000430190f80c900cebc1019d42f1d09a4249
:107aa00009d0b1f804b0c34505d191f810b0cb4569
:107ab00008bfa1f804e00133dbb21831ede79ef80e
:107ac0000cb09b4507d1bef800b04ff6ff77bb4521
:107ad0001cbf0131c9b20130c0b20ef1180e904284
:107ae000edd119b91cf4c30f64d1984649453cbf88
:107af00089461d460133dbb2202b4fea4c0cb4d132
:107b0000b8f1ff0f58d1ff2d05d1454b43f2b80214
:107b10001a8055f0cbfddff810b100238bf83850f8
:107b20000df10d011820d6f8089096f807a08df8f1
:107b30000d3049f013fe9df80d805e46b8f1000f40
:107b400041d157f093fd80b20af1010badf80e0060
:107b500043464ff6ff71884204bf4ff001080020f2
:107b600009f1040c002292450bd09cf80ce0ae45c4
:107b700024d1bcf800e0864520d1013080b24ff01e
:107b8000010801339bb29b45e5d8b8f1000f01d045
:107b9000adf80e00bdf80e30b3874ff6ff7293427a
:107ba00017d11f4b43f2b9021a8055f07ffd05b083
:107bb000bde8f08f1d46aee74546ace70132d2b2d4
:107bc0000cf1180ccfe70df10e01172049f0c6fd9e
:107bd000e0e794f8453004f108000bb1b4f8463002
:107be000738723830f4b2362009a532323745923f3
:107bf00082f878313ff06cf896f8381024204ef077
:107c0000fdfed4e7c423009a84f84c30582382f850
:107c100078310920fcf7f2ffc9e700bf8039002066
:107c20005c0600206975000160060020014b588f3a
:107c3000704700bf6006002070b50b4c94f83050c0
:107c40000e467db9532323762084084ba36204f1aa
:107c500010003ff03df8012384f8303084f83160a3
:107c6000284670bdc320fce7201c0120954a000176
:107c7000014b93f8310070476006002008b5fcf70f
:107c800077fa18b103786ff30003037008bd08b5e5
:107c90000146044854f0c8fc1120bde80840fcf738
:107ca000adbf00bf583c002010b5014638b90f4b9e
:107cb00043f2d002bde810401a8055f0f7bc0c4cde
:107cc000204654f0b1fc2379d62b06d170232371c2
:107cd0000820bde81040fcf791bf703b022b03d990
:107ce000024b43f2d102e5e710bd00bf5c06002065
:107cf000b839002070b5484c94f80032212b254645
:107d000040f0858004f5c47054f0b2fca0f1080383
:107d1000c4f88c31414b027c1a72fff7bdfc23780a
:107d2000db062bd5d4f88c311a7b023a012a25d8f0
:107d3000322284f80022227093f8342084f8fd2146
:107d40001a6bc4f8f4210022c4f8f02184f8ee2163
:107d50009b7b334ac4f8f821012284f8fc212bb123
:107d600004f5e470bde87040fff79ebf84f8ec3185
:107d700004f5f670bde87040fdf7b8b8d5f88c3161
:107d8000c22283f82b20222385f80032234cd5f819
:107d90008c11638f0b85d1e90023c1e9082391f889
:107da0002b6094f8383081f82a30f6b9d5f8903144
:107db000d3e9042304f13c011720c4e9102349f05e
:107dc000f9fc04f13801162049f0f4fcfff75afbe6
:107dd000bd232b70637ad5f89021c3ebc303dbb2cc
:107de000928831463046fcf7f0fcd5f88c014369a7
:107df000203098470023c5f89031d5f888314bb131
:107e00000a20fcf7fbfe212385f8003201e0222b3b
:107e1000bcd070bdda23f7e780390020600600206f
:107e2000ed4e000110b5014638b90f4b4ff44252e8
:107e3000bde810401a8055f039bc0c4c204654f077
:107e4000f3fb2379132b06d1e72323710d20bde823
:107e50001040fcf7d3be1933dbb2022b03d9024b1f
:107e600043f28a02e4e710bd5c060020403a00209d
:107e700010b5014638b90f4b43f2a002bde81040df
:107e80001a8055f013bc0c4c204654f0cdfb2379de
:107e9000b72b06d1542323710920bde81040fcf70d
:107ea000adbe543b0c2b03d9024b43f2bc02e5e7b9
:107eb00010bd00bf5c060020f43a00204b1edbb270
:107ec000fd2b10b507d90d4b43f2a0421a8055f097
:107ed000edfb00200de00a4ad2f81834d2f81c2439
:107ee0001c783cb958801970014611204ef086fd6f
:107ef000012010bd04339a42f2d8eae75c06002064
:107f000080390020f8b507460e4639b9104b43f2c8
:107f1000a1421a8055f0cafb3046f8bd0d4dd5f888
:107f20001844002023786bb16288ba420ad1ff2e30
:107f300001d0b34206d100231120237039464ef000
:107f40005dfd0120d5f81c340434a342ead8e4e7ef
:107f50005c0600208039002073b5064640b9104bfe
:107f600043f2a3421a8055f0a1fb304602b070bd27
:107f70000c4dd5f818440020ff2e02d02378b342d0
:107f800008d123680193122001a94ef037fd002388
:107f900023700120d5f81c340434a342ecd8e5e763
:107fa0005c0600208039002038b50c4639b90e4bec
:107fb00043f2a2421a8055f079fb002038bd0b4aeb
:107fc000d2f81834d2f81c141a7832b15d88854280
:107fd00003d1ff2c05d0a24203d004339942f3d839
:107fe000ebe70120eae700bf5c06002080390020b3
:107ff000064ad2f81834d2f81c240020197809b99e
:108000000130c0b204339a42f8d87047803900205a
:10801000084b30b10430d3f81c34984204d300200c
:108020007047d3f81804f6e70278002af8d1043034
:10803000f3e700bf8039002013b50b4c0df10701a9
:1080400040f2151049f08afb214640f2112049f018
:108050006bfb9df807202068920083180021636065
:1080600057f064fb02b010bd983d0020014b83f82f
:108070005300704760060020014b83f8540070479e
:1080800060060020014b93f8530070476006002003
:10809000014b83f85300704760060020014b93f8b2
:1080a0005400704760060020014b1888704700bfdd
:1080b00060060020014b988f704700bf60060020cb
:1080c000014b9887704700bf60060020014bd3e941
:1080d0001001704760060020d0e90001014bc3e9a0
:1080e0001001704760060020014b93f82e00704786
:1080f00060060020014b93f83800704760060020ae
:10810000034b014683f8380024204ef077bc00bfb3
:1081100060060020014bd868704700bf6006002051
:10812000014bd888704700bf60060020014bd88003
:10813000704700bf6006002008b5054b0146187463
:1081400022204ef05bfcbde80840fff79bb900bf62
:108150006006002073b50578114cc5b9114eb4f80e
:108160003a33b387fdf79afa06f13c01172049f03c
:1081700021fb94f83c03fff7dffffff783f90f23a0
:1081800001a8adf804508df806300ef025f99223c1
:1081900084f83833d4f8403303b1984702b070bd47
:1081a000803900206006002038b503791f4c054651
:1081b0008bb103f0ef03ea2b0dd01d4b187c01307f
:1081c000c0b2fff7b9ff842384f868330920bde803
:1081d0003840fdf70fb8ea79b4f86c339b1a9bb2bc
:1081e000a4f86c336bb157f041fab4f86c2380b249
:1081f000b0fbf2f302fb1303b4f86a030344a4f8e0
:108200006a330023ea799a42d7d9aa68b4f86a0394
:1082100003eb430102ebc10201339288824204bfa7
:108220000132a4f86a23dbb2ece700bf80390020fa
:1082300060060020014b187c704700bf60060020dc
:10824000014b83f83000704760060020014b93f823
:108250003300704760060020014b5888704700bf0c
:1082600060060020014b9888704700bf6006002020
:10827000024b0022c3f80220704700bf60060020b6
:10828000014b9874704700bf60060020084b1b7cb0
:10829000c21a002ab8bf5242c72a04dc984294bfcf
:1082a00000200120704798428cbf002001207047b9
:1082b000600600200a4b1b7c98420fd0c21a002a8d
:1082c000b8bf5242c72a04dc984294bf0020012064
:1082d000704798428cbf00200120704701207047f2
:1082e000600600202de9f8432f4bd3f8f4400646f2
:1082f0000f469046002599462378062b41d0637897
:10830000022b3ed056ea070309d0d4e90423bb422e
:1083100008bfb24235d1607efff7ccff88b3a37ea1
:10832000b8f1000f35d013f0040f2ad0002d38d04b
:10833000d9f8f4201d48d9f8fc10a31aaa1adb10aa
:10834000d2104243434301ebc30301ebc2011b794b
:1083500009796a7e591a637e93420ad0981a0028d6
:10836000b8bf4042c72817dc93428cbf00230123cb
:108370003bb9193105db57f079f910f0080f08bf48
:108380002546d9f8f83028349c42b5d32846bde8b4
:10839000f88313f0020fc8e7934294bf0023012330
:1083a000e6e72546ede700bf80390020cdccccccf8
:1083b00010b5154cd4f88c310122d3e90001fff738
:1083c00091ffc4f89001a8b1002384f801320f4a4c
:1083d000c3889387a4f8d83150220d4bc4f8e031fc
:1083e00004f5e47084f8d0213ef072fc292384f86f
:1083f000003210bdd4f88c31c32283f82b200a2020
:10840000fcf7fcfb2223f2e7803900206006002005
:10841000b98e000110b50f4c99b9d4f89c3103f511
:108420001173c4f89c310c4bc4f8a43104f5ca7024
:10843000012384f8a0314bf091fd2d2384f8003204
:1084400010bdd4f890319a7e6ff382029a76bde81f
:108450001040ade7803900205d8400010f4b1048cb
:108460001b7a13f0080f11d1022380f8b031d0f835
:108470009031da889b88a0f8b8310a4ba0f8b22175
:10848000c0f8c03100f5d4703ef028bcd0f890316f
:108490009a7e6ff382029a768ae700bf6006002018
:1084a0008039002005bd000182e70b4a92f80132b5
:1084b0000133dbb2022b82f8013206d9d2f89031b7
:1084c0009a7e6ff382029a7672e7282382f800324e
:1084d0000320fcf78fbe00bf8039002010b5037861
:1084e000174cd4f88c2143b182f82b300a20fcf7ca
:1084f00085fb222384f8003210bd117b032915d19e
:10850000104b1b7a13f0080304d1c4f89c31bde86a
:108510001040cae7812384f8d03104f5e4700a4b97
:10852000c4f8d4313ef08bfb2b23e3e782f82b30e9
:10853000222384f800320a20bde81040fcf75ebb1d
:1085400080390020600600204d850001037810b5b9
:10855000094c2bb98368c4f89c31bde81040a4e7ee
:10856000d4f88c210a2082f82b30fcf747fb222319
:1085700084f8003210bd00bf80390020f8b58b7937
:10858000012b0f46164652d18c68cd6837f0b0fdee
:10859000d0e900239d4208bf944248d1364d95f85a
:1085a0000032a3f12c02012a2c464bd805f5ca70e3
:1085b0004bf0fefcb7f819204ff6ff73934238d00a
:1085c000fb7e002b35d1d5f88c112c4d81f82b304a
:1085d0006a87d4f8902191882980d17885f838105d
:1085e0001370137e507e0133dbb20f2b28bf0f2395
:1085f0006b72fff7a1fd73682bb11968d4f8902155
:108600005b68c2e90213532384f8d0316b8fa4f85e
:10861000d8311b4bc4f8e0311a483ef059fb2e23e9
:1086200084f8003295f8381024204ef0e7f9012044
:10863000f8bdd4f890319a7e6ff382029a76fff7f4
:10864000b7fef4e7da2bf2d10c4a92f82e30022b67
:10865000edd1b7f819305387a5f8d8315322084b1c
:10866000c5f8e03185f8d02105f5e4703ef030fb27
:10867000312385f80032dae78039002060060020d7
:10868000b98e0001483b002010b51d4cd4f88c3148
:108690000022d3e90001fff725fec4f8900108b3da
:1086a000002384f80132174b93f8372084f8d12146
:1086b000c27884f8d02102221b7a84f8d221c288a1
:1086c000a4f8d421828884f8e03104f5e4700e4bdc
:1086d000c4f8e431a4f8d8213ef0a8fa232384f8a2
:1086e000003210bdd4f88c31ca2283f82b2022230b
:1086f00084f800320a20bde81040fcf77fba00bfc2
:108700008039002060060020159e0001024b0022e7
:108710009a705a601a817047201c012010b5fff72b
:10872000f5ff4bf061fc054c6063383420464bf09c
:108730003ffc2046bde810404bf010bc201c01203f
:1087400010f0fb0f03d1074b01221a757047052863
:1087500001d00e2804d1034b00221a75fff7debfab
:10876000704700bfc437012000487047221c012019
:10877000044b054a1a64012283f84420034a9a6490
:10878000704700bf201c0120a075e9001d87000173
:1087900008b54bf029fc064b5b6bc01a054b9842a1
:1087a00097bf4ef66023ff20b0fbf3f0c0b208bdc8
:1087b000201c01209f75e900037b03f0fd02042ac1
:1087c00010b5014603d1bde81040fcf74cbe012bab
:1087d00001f10801104c0fd104f57d7053f024ff16
:1087e00094f8f033162b15d1172384f8f0331320a7
:1087f000bde81040fcf702ba04f5c47053f014ff52
:1088000094f80032da2b05d10a20fcf7f7f921237e
:1088100084f8003210bd00bf8039002008b5014641
:10882000084853f001ff084b93f8b920e62a07d116
:10883000112283f8b9200c20bde80840fcf7deb90e
:1088400008bd00bff83900208039002038b5164b2c
:10885000164993f8b8501c462dbb022a1ad1a3f82a
:10886000a800012384f8ad3000220023c4e92823a6
:1088700091f8203284f8aa304ff48073a4f8ab301a
:108880000b4bc4f8b0300b48fff7c8ff012384f846
:10889000b83008e0032ae7d100200021c3e928010d
:1088a000012283f8ad2038bd8039002070e3040137
:1088b000a56e0001183a002010b50e4c94f8b8309f
:1088c000b3b900220023c4e928230b4b84f8ac0081
:1088d00093f8203284f8aa3004f19800074bc4f8ca
:1088e000b03084f8ab10fff799ff012384f8b8305b
:1088f00010bd00bf8039002070e30401a56e0001a7
:1089000010b4094c094ad4f8f430c31adb105a43a6
:10891000d4f8fc305df8044b03ebc2039a7961f3a1
:1089200002029a71fcf7fcb880390020cdcccccc87
:1089300010b5074c94f87c32022b08d0fcf7fcfff2
:10894000012384f87c32bde81040fdf7c1b810bdaa
:108950008039002010b5084c0146204653f064fed3
:1089600023798e2b06d18f2323710f20bde8104071
:10897000fcf744b910bd00bfec3a00204ff6ff737e
:1089800098420d4a1abf013080b20020b2f8ac12f2
:10899000d2f8a822c0ebc0031344814202d84ff69c
:1089a000ff7070471a7902f00502052a03f10703e8
:1089b000f7d0013080b2f0e780390020034bc0ebe4
:1089c000c000d3f8a832185a704700bf8039002081
:1089d000034bd3f8a832c0ebc0000344588870475b
:1089e0008039002001460a204df09cbf01460a2034
:1089f0004df0d2bf0c4b30b12830d3f8f820904264
:108a000004d300207047d3f8f400f6e7037803f0ae
:108a1000fb03012b05d14378022b02d183888b42c3
:108a2000f0d12830ebe700bf8039002010b50b4aa9
:108a30000b49d2f8f430898fd2f8f8201c78062c34
:108a400005d09c88844202d1dc888c4203d0283334
:108a50009a42f3d80023184610bd00bf8039002089
:108a600060060020f8b5254ad2e93a35eb1a92f8ab
:108a70000051013505eb23150e46adb204464ff605
:108a8000f677631e9bb2bb4288bf01241c4b5b8ff1
:108a9000a34213d02046fbf783fb18bb2046fff709
:108aa000c5ff38b1d0e90201d6e90023994208bfd9
:108ab000904208d12046f8bd1d46e2e7304637f027
:108ac00023fb0028e6d101346b1ea4b29bb2002d1b
:108ad000f2d10c4b43f206021a804ff6ff7454f0a9
:108ae000e5fde7e703789b07edd4d0e90201d6e97d
:108af0000023994208bf9042e5d1cfe7803900209a
:108b0000600600205c06002010b586b0cde9002389
:108b10002023adf80c300df10a03adf80a100493d0
:108b20000c46002303a91e2005934df067ff059b0b
:108b300043b1bdf80a006946fff794ff044620469a
:108b400006b010bd0c4b93f83120002af7d193f8f2
:108b50002f30022b09d14ff6f7739c4202d956f001
:108b600085fd84b269462046e6e7032b0cbfbdf8bd
:108b700000404ff6ff74e2e76006002038b501229e
:108b80000546d0e90201fcf7e1fa0446d8b1aa7e15
:108b9000637862f3c30363700020ab88638220753f
:108ba000d5e902234ff6fe71fff7aeffd5e90223a8
:108bb000c4e9022301232082637523700420bde8e9
:108bc0003840fcf717bb38bdf7b54f4c227812f090
:108bd000400f0f46254611d094f85221aa2a0fd0f3
:108be000b4f85021824209d1484b84f854115b8f6c
:108bf000934214bf0123002384f8533103b0f0bd26
:108c0000424ea4f85001728f84f85411824296f8b3
:108c10002e204ed1002af1d0022a03d096f82f3010
:108c2000022b25d0d6e91023c5e946230323a5f856
:108c300024310df10701292048f090fd9df807200f
:108c400001230ab185f8253196f8382085f82631b8
:108c50009340c5f84831082385f84c312c4bc5f8b2
:108c60002c31452385f852312a48fff7a5fdc5e789
:108c7000012ac3d137f03cfa4ff6fe71d0e9002348
:108c80000120fff741ff738f8342f3d04ff6f77354
:108c90009842b3d8532385f820311f4bc5f83031a3
:108ca0004423a5f8280185f852311a483ef010f8ff
:108cb000a4e7022aa2d0c9b10d22184b84f82e21b4
:108cc000c4f81c314ff6fd720023a4f82021a4f84b
:108cd0002201023284f8283104f58c704623a4f86e
:108ce000242184f85231fcf7effa87e7fbf79afb6f
:108cf000002883d0472284f85221827e67f3c30282
:108d00008276fff73bff79e780390020600600207c
:108d1000554d0001983a002005530001518e000185
:108d2000014b0021588f4fe76006002030b5274bdc
:108d30001b78db0787b008d5537d042b05d1146958
:108d400065780b2d16d003d85db1012007b030bd7a
:108d50000c2d25d00d2df8d100216088fff734ffb0
:108d6000f3e760884ff6f7739842eed82946fbf791
:108d700023fdeae701238df804306388adf8053060
:108d80008b88adf807303e2001a94df037fe608892
:108d9000fbf734fc0028d8d04ff6ff730380d4e7ec
:108da00002238df804308b88adf8053001a93e20f0
:108db0004df024fea378e2788df8025043ea0223b6
:108dc0006846adf800300df007fbbee780390020a3
:108dd00010b51e4c94f85231aa2b2ed1d4e93d3255
:108de0001978062902d0997e090703d428339342c3
:108df000f6d30023002184f85311a3b19a88a4f874
:108e000050219a7e61f3c3029a760121b4f8500191
:108e1000fff7dafe94f85231aa2b0ed10220bde8fa
:108e20001040fbf7ebbed4e93a311a7802f00302a6
:108e3000032a03d010338b42f7d310bd5a88a4f80d
:108e400050211a786ff341021a70dee78039002052
:108e500010b5164c38b194f85231462b03d104f2b8
:108e60002d13984205d0124b43f283121a8054f00e
:108e70002ffc104b93f82e30022b0ed0b4f850017b
:108e8000fbf7d0fa48b1827e6ff3c3028276fff718
:108e900075fe472384f8523110bdaa2384f852315d
:108ea0000220bde81040fbf7a9be00bf80390020ba
:108eb0005c06002060060020037873b5624c53b155
:108ec000d4f88c210a2082f82b30fbf797fe22235e
:108ed00084f800323ae094f80032243b112b35d864
:108ee000dfe803f04e566a343439463434347c8635
:108ef000919d34365f09d4f88c311b7b032b23d131
:108f0000524d95f831307bb96a8f4ff6f7739a421c
:108f100002d956f0abfb68876e8f37f0e9f801464f
:108f20003046fff79ffd6887532384f8d0316b8f5d
:108f3000a4f8d831332384f800324548454bc4f8af
:108f4000e0313df0c5fe01e0fff79efb02b070bdd1
:108f5000fff72efafae7d4f890313c4adb7882f832
:108f60003830002284f8d83184f8d0212a23e2e76f
:108f7000452384f8d031384bc4f8d8312423dae7bc
:108f8000462384f8d0310f2384f8d8312523d2e743
:108f90008323324984f8d031082048f0dffb3423a2
:108fa000c9e7522384f8d031284b1b7ac3f3c0039e
:108fb00084f8d8312623bee7244b25481b7a13f0ca
:108fc000080f14bf6ff07f430023c4f8d031244b47
:108fd000c4f8d4313df076fe272379e74b2384f89b
:108fe000d031d4f890319b88a4f8d8312f23a2e750
:108ff0004a2384f8d031d4f89031d3e90223c4e96c
:109000007623302397e7d4f88c31002283f82b2085
:109010000a20222384f80032fbf7f0fd96e70b4b81
:109020005b8fadf8043001a810238df806300df0e9
:10903000d3f9d4f8883123b10a20fbf7dffd2123cf
:1090400046e7da2344e700bf8039002060060020ad
:10905000483b0020b98e00017e060020583b0020ce
:10906000dd8400010c4b5b8f834210b5044603d1b5
:10907000bde8104037f03cb8fff7d8fc28b1d0e984
:109080000223134301d0083004e02046fbf788f8a0
:109090000028f8d110bd00bf60060020f8b5c469f3
:1090a0001c4d06462046d5f82c74fdf7d5fb012350
:1090b000a371194b1b886380238823f4805323f00a
:1090c000030343f4805343f00103238037f010f887
:1090d000d0e9002363616378226143f00803637081
:1090e0006088fff7bfffd0e90023e3600b232376fe
:1090f0003b796376a260a37e7a7962f300036ff313
:109100004703a3761b2386f83030032385f82834e1
:10911000f8bd00bf8039002060060020f8b5264f5a
:10912000c469d7f8b0624660338d0385012380f8a7
:10913000323005462046fdf78ffbf3695888608082
:109140009b88a380238823f4805323f0030343f4f4
:10915000805343f001032380fff784ff3a46d6e9aa
:10916000147120b3637843f008036370d0e900c33f
:109170006161c4f808c0e36027611821eb690b4402
:1091800005201870f4690d48a488408f84420bbff5
:109190000020012458705c7016bf588002230423fd
:1091a0000b4485f83030f82382f8b432f8bde16022
:1091b000a7601021e2e700bf803900206006002090
:1091c0002de9f041c4693c4e05462046fdf744fbbd
:1091d0002388f088608023f4805323f0030343f452
:1091e000805343f001032380fff73cff637800289e
:1091f0003bd043f008036370d0e90023a260e36032
:1092000036f076ffd0e90023636122611823183419
:1092100085f8303023882948224603f4f85343f078
:10922000090322f8023b336cc4f80230d0f82473ef
:10923000736c5360b38f90f823c3638104370123a9
:1092400000218c451dd1627863f30402627095f8a9
:10925000302003f01f030a3202eb430385f830305d
:10926000542380f81033bde8f08160f3c3036370ca
:1092700036f03effd0e90023e360a26010231034f3
:10928000c6e704eb43023e885681002202f1010842
:10929000043204eb4202b2f802e076455ffa88f24b
:1092a000f4d1934203d20133dbb2102bcbd0013186
:1092b000c9b21837c5e700bf60060020803900201a
:1092c0002de9f0414ff6ff73c46903858b7880f870
:1092d0008530064620460d46fdf7befa23684ff658
:1092e000fc721a402b4b13432360eb7aa3716b7b08
:1092f000e371a888a080fff7b5fe40b3637843f020
:1093000010036370d0e900234ff00808a260e36007
:10931000f46908f108073c44238803f4804343f0d0
:10932000010323806a78637802f06001202910d15c
:1093300043f040036370ab7aa3702b89a4f8033029
:10934000ab786371063786f83070bde8f0818046ef
:10935000dee76ff38613637049b912f0100fdbb2ca
:1093600003d0022262f3c403e4e70122fae728896a
:10937000fff778fe0028ded0637843f020036370a7
:10938000d0e9002308f11007c4f80620c4f80a3019
:10939000d1e700bf0100fcff2de9f04f85b0884602
:1093a00001925c4a0f9e92f82e109df838409df86d
:1093b00040504ff6fe7b022907469a46a6f800b0b9
:1093c00091461dd11288328013b9824208bf01250f
:1093d00003238df80c308df80d50fe238df80e30e0
:1093e0009df80c30002063f307009df80d3063f307
:1093f0000f209df80e3063f3174005b0bde8f08fe5
:109400002bb11cb34ff6ff7333800823e1e74ff60f
:10941000f7729042f6d8fff709fb0446b0b1827e9e
:10942000d30707d44ff481733780adf80c308df833
:109430000eb0d5e70278052a02d04278022a05d17b
:109440004ff482733780adf80c30c6e7514638468a
:10945000fbf796f9002852d0428832801ffa82fc2e
:10946000027990f806b051073ed5b9f83a10414557
:109470004bd1130749d40721baf1000f01d1674539
:1094800045d05d4528bf5d46edb214b3062920d115
:109490002148224ad0f8f430e31adb105a43d0f8be
:1094a000fc3003ebc2039879c0f3c2072046faf7f9
:1094b00075ff99f83530b842b8bf38465b4528bfcc
:1094c0005b46dbb2984211d2a388338083460125e4
:1094d00004213388434502d0019a934208d14ff6c4
:1094e000fe733380012103e00621c5e70029f0d196
:1094f0008df80c108df80d5099e72146f8e74ff0e4
:10950000fe0b002cf9d00146c2e70a21bde7012578
:10951000bbe700bf6006002080390020cdcccccc5a
:1095200030b5c5698bb0044669462846faf798feff
:109530009df8142094f830309a4228d80123039ad9
:1095400084f8323053786bb96d882846fff76efa8d
:1095500028b1837edb075cbf052384f83230258584
:109560000bb030bd1178994211d902eb4301488804
:109570000949498f88420ad1013bdbb2537002eba3
:1095800043039a78db7842ea03232385e8e77523cf
:1095900084f83030e4e700bf600600202de9f34195
:1095a00090f807808779002308f101085ffa88f8ae
:1095b0004372764b80f8078093f82e30022b0446d6
:1095c0000e4600f0c3803d460e2f2cd8dfe807f092
:1095d000c9c908262633335858582b2b2ba7c90046
:1095e00056f044f8c0f30b0060810126e379b342e2
:1095f00019d8608936f096fd40096081214664489b
:1096000053f012f8634890f85030002b3dd10123fd
:1096100080f8503054304af0a1fc36e0b8f1010f28
:1096200032d0032f01d001252fe041f60273438190
:1096300004260225dae7062f13d1b8f1010ff2d87c
:10964000b8f1010f14d156f011f840f6627280b2f1
:10965000b0fbf2f302fb13033f335b00638103268d
:10966000e7e750f8343c90f84d209b789a42e6e7c3
:109670001eb133780bb9e371d5e741f60273ede71c
:10968000092f06d1072383710025284602b0bde8c3
:10969000f081b0f84800fff7c9f9082f05461cd142
:1096a000002333706369002b6cd1b8f1020f69d8c5
:1096b000a379082b21d12046faf7f0fe354badf8ff
:1096c000040093f8e032c0b2984216d20198fbf73a
:1096d00059fa50b10325e571d7e7002ee2d033786f
:1096e000002bdfd10823a371dce7e679022e04d139
:1096f00043f609536381042578e74db16e78022e55
:1097000006d12b7803f0fb03012b01d10023f1e7f5
:1097100055f0acffc0f30a0060810226ebe7002998
:10972000b2d00b786bb1e12b14bf0126022655f0a5
:109730009dffe2794ff480639340013b18406081c4
:1097400077e7012343729b02438188e70e2f3ff6a0
:109750006aaf0122ba4044f283331340002b3ff436
:1097600062af8eb13378002b3ff45daf012f07d08d
:109770000e2f0cbf02260126e12bd8d10136d6e7e9
:109780000326d4e7032580e735467ee76006002000
:10979000e8390020803900202de9f0413d4fc469af
:1097a000d7f8b86205462046fdf756f8337c1bb162
:1097b000738aa380337de37123883089608023f42a
:1097c000805323f0030343f4805343f001032380c9
:1097d0004ff6f773984245d8fff744fc80460028bf
:1097e00040d0637843f00803637036f081fcd0e921
:1097f000002322616361d8e90023a260e36018229c
:1098000004f1180385f8302003221a70b27d5a70d3
:1098100072895a8095f88630102b02bf95f88730f0
:1098200043f0020385f88730b089f389a5f88030ca
:109830004ff6f7739842288522d8fff7f7f80123ef
:1098400085f8323028b1837edb0702d4052385f802
:10985000323095f83030043385f83030212387f8e2
:10986000d43214e063786ff3c303637036f040fcc6
:10987000d0e90023a260e360102204f11003c1e7e5
:10988000054be179588ffbf741fe0228e1d1bde895
:10989000f08100bf80390020600600202de9f843e8
:1098a0004b7806466ff3c3034b70c888308501239d
:1098b00086f83230f4698846fff7d4fb0746204625
:1098c000fcf7caff98f80c30584aa371538fa38055
:1098d000338d6380238823f4805323f0030343f400
:1098e000805343f0010323809146002f00f08280d3
:1098f000637843f00803637036f0fafbd0e9002385
:1099000022616361d7e900230827a260e36098f829
:109910000130f46903f0600310373c44a3f12002e6
:1099200053425341627863f386126270238803f4d2
:10993000e04343f00203238098f80a30a370b8f89c
:109940000450b8f80830a4f80350a4f80530b8f86b
